:020000040800F2
:100000004809002499030008B95700085154000812
:10001000B1570008B1050008796F00080000000022
:10002000000000000000000000000000195A000855
:10003000090A000800000000C1570008215A000802
:10004000B3030008B3030008B3030008B3030008B8
:10005000B3030008B3030008B3030008B3030008A8
:10006000B3030008B3030008B3030008B905000890
:10007000C9050008B3030008B3030008B303000870
:10008000B3030008B3030008B3030008B303000878
:10009000B3030008B3030008B3030008B303000868
:1000A000B3030008B3030008B3030008B303000858
:1000B000B3030008B3030008B3030008B303000848
:1000C000B3030008B3030008B3030008B303000838
:1000D000B3030008516F0008B3030008B30300081E
:1000E000B3030008B303000800000000B3030008D6
:1000F000B3030008B3030008B3030008B303000808
:10010000B3030008B3030008B3030008B3030008F7
:10011000B3030008295D0008B3030008B303000817
:10012000B3030008B3030008B3030008B3030008D7
:10013000B3030008B3030008B3030008B3030008C7
:1001400000000000000000000000000000000000AF
:10015000B3030008B3030008B3030008B3030008A7
:10016000B3030008B3030008B3030008B303000897
:10017000B3030008B3030008B30300080000000045
:10018000B3030008B3030008B3030008B303000877
:10019000B3030008B3030008B3030008B303000867
:1001A000B3030008B3030008B30300080000000015
:1001B000B3030008B3030008B3030008B303000847
:1001C000B3030008B30300080000000000000000B3
:1001D0000000000000000000B30300080000000061
:1001E000000000000000000000000000000000000F
:1001F0000000000000000000B3030008B303000883
:10020000B3030008B303000800000000B3030008B4
:10021000B3030008B3030008B3030008B3030008E6
:10022000B303000800000000B30300080000000052
:10023000B3030008B303000800000000B303000884
:10024000B3030008B3030008B3030008B3030008B6
:10025000B3030008B3030008B3030008B3030008A6
:10026000B3030008B3030008B3030008B303000896
:10027000B3030008B3030008B30300080000000044
:10028000B3030008B3030008B3030008B303000876
:1002900000000000B3030008B303000800000000E2
:1002A00000000000B3030008B3030008B303000814
:1002B000B3030008B3030008B3030008B303000846
:1002C000B3030008B3030008B303000800F002F80A
:1002D00000F052F814A696E8000CB244B344DA4594
:1002E00001D100F049F8BAE80F000FA696E83000F7
:1002F000A5EB040504EB0607AAEB0704A7F1010729
:100300004FEA15154FEA3414A4F10104AC4201D3AD
:1003100000F032F813F0010F18BFFB1A43F001038D
:1003200000F001F8DBE71847147400003474000093
:10033000103A24BF78C878C1FAD8520724BF30C811
:1003400030C144BF04680C60704700007047000073
:100350000023002400250026103A28BF78C1FBD8CE
:10036000520728BF30C148BF0B6070471FB507F068
:10037000B5F91FBD10B510BD00F0E4F81146FFF748
:10038000F5FF06F0C9FF00F002F903B4FFF7F2FF32
:1003900003BC00F005F90000094880470948004700
:1003A000FEE7FEE7FEE7FEE7FEE7FEE7FEE7FEE725
:1003B000FEE7FEE704480549054A064B7047000082
:1003C000F15A0008CD02000848030024480900241F
:1003D000480500244805002453EA020C00F0698017
:1003E0002DE9F04B4FF00006002B1FBFB3FA83F549
:1003F00003FA05F424FA05F65E4012BF1643B2FA7A
:1004000082F502FA05F4C5F120051EBF22FA05FCAB
:1004100044EA0C04203556EA044C4FEA144418BF51
:10042000641C4FF000084FF00009904271EB030C80
:1004300039D3002919BFB1FA81F701FA07F6B0FAEA
:1004400080F700FA07F6C7F120071EBF20FA07FC65
:1004500046EA0C062037B6FBF4FCA7EB0507103F75
:1004600007F01F0BCBF120062CFA06F60CFA0BFB5B
:1004700044BFB3460026202FA4BF5E464FF0000BBA
:100480005BEA060C08BF4FF0010B19EB0B0948EBB8
:100490000608ABFB027C06FB02CC0BFB03CCC01BAB
:1004A00071EB0C01C1E70B46024641464846BDE8E8
:1004B000F08B13B5084318BF4FF0FF300146AFF380
:1004C0000080BDE81C4070474FF0000200B51346A5
:1004D00094469646203922BFA0E80C50A0E80C5064
:1004E000B1F12001BFF4F7AF090728BFA0E80C5015
:1004F00048BF0CC05DF804EB890028BF40F8042B0E
:1005000008BF704748BF20F8022B11F0804F18BF7A
:1005100000F8012B704770477047704710B500F026
:1005200009F8006810BD10B5044600F003F8046037
:1005300010BD0000004870471000002400487047BC
:10054000100000247546FFF7F9FFAE460500694626
:10055000534620F00700854618B020B5FFF72AFF64
:10056000BDE820404FF000064FF000074FF00008B4
:100570004FF0000BAC46ACE8C009ACE8C009ACE8F1
:10058000C009ACE8C00921F007018D46704710B5DD
:100590000446AFF300802046BDE81040FFF7F5BEEB
:1005A00001491820ABBEFEE726000200704700009C
:1005B000FEE700000000000040F25410C2F20040CC
:1005C00000F01EBE0000000040F2DC00C2F200405D
:1005D00000F016BE0000000040F20F42D0F800C04C
:1005E000C4F20202944511DC6F22C4F20202944567
:1005F00022DC3F22C4F20202944539DC1022C4F20C
:10060000020294455AD0282254E000BF40F26F42C3
:10061000C4F2020294451BDC40F23F42C4F20202E3
:1006200094452DDC40F21042C4F20202944545D0BC
:1006300040F228423EE000BF9F22C4F202029445ED
:1006400028DC7022C4F20202944537D0882231E0BF
:1006500040F29F42C4F20202944523DC40F2704211
:10066000C4F20202944529D040F2884222E000BF41
:100670004022C4F20202944520D058221AE000BF62
:1006800040F24042C4F20202944517D040F2584270
:1006900010E000BFA022C4F2020294450ED0B8229E
:1006A00008E000BF40F2B842C4F20202944505D00F
:1006B00040F2A042C4F20202944517D10CF0F802B5
:1006C0004AF6AB23103ACAF6AA23A2FB03310AA3C7
:1006D0005F2AC1F302115B5C40F2FF312CEA010199
:1006E000C36588BF04318165084670472CF0FF015F
:1006F00081650846704700BF0006101600061016F8
:1007000070B540F26F44D0F800C0C4F20204D0F8D3
:1007100058E0A4451ADC9F25C4F20205AC4533DC41
:100720005725C4F20205AC455ADC1025C4F2020577
:10073000AC4500F098802825C4F20205AC4500F0D5
:1007400092804025C4F202058AE000BF45F22F45A1
:10075000C5F60205AC452DDC40F2B745C4F20205F2
:10076000AC454BDC40F27045C4F20205AC457AD092
:1007700040F28845C4F20205AC4574D040F2A04571
:10078000C4F202056CE000BF40F22745C4F2020546
:10079000AC4543DCA025C4F20205AC4563D0B825C6
:1007A000C4F20205AC455ED040F21045C4F2020529
:1007B00056E000BF45F26B45C5F60205AC453FDC8F
:1007C00045F23045C5F60205AC454CD045F24445EE
:1007D000C5F60205AC4546D045F258453EE000BF9F
:1007E0005825C4F20205AC453DD07025C4F202057F
:1007F000AC4538D08825C4F2020531E040F2B84556
:10080000C4F20205AC452ED045F20845C5F60205F6
:10081000AC4528D045F21C4520E000BF40F22845F9
:10082000C4F20205AC451ED040F24045C4F20205B8
:10083000AC4518D040F25845C4F2020510E000BFA4
:1008400045F26C45C5F60205AC450CD045F2944521
:10085000C5F60205AC4506D045F28045C5F6020551
:10086000AC4540F0D080456EC66E002E866E6E6040
:100870001CBFD0E91C566E60A44515DC9F24C4F251
:100880000204A4452CDC5724C4F20204A44551DC24
:100890001024C4F20204A4457AD02824C4F202042D
:1008A000A44575D040246FE045F22F44C5F60204FC
:1008B000A44529DC40F2B744C4F20204A44545DC57
:1008C00040F27044C4F20204A44561D040F288446E
:1008D000C4F20204A4455BD040F2A04454E000BF3F
:1008E00040F22744C4F20204A4453FDCA024C4F231
:1008F0000204A4454CD0B824C4F20204A44547D055
:1009000040F2104440E000BF45F26B44C5F60204DB
:10091000A44555DC45F23044C5F60204A44561D037
:1009200045F24444C5F60204A4455BD045F2584460
:1009300054E000BF5824C4F20204A44528D0702417
:10094000C4F20204A44523D088241DE040F2B84438
:10095000C4F20204A4451BD045F20844C5F60204C3
:10096000A4453FD045F21C4438E000BF40F2284483
:10097000C4F20204A4450BD040F24044C4F2020485
:10098000A44505D040F25844C4F20204A4453AD12B
:100990008468C06D00F01F003F2505FA00F0CEF816
:1009A0000800DCF80000402C20F48020CCF8000087
:1009B000CCF8043023D1CCF80820CCF80C1070BD52
:1009C00045F26C44C5F60204A4450BD045F28044C0
:1009D000C5F60204A44505D045F29444C5F60204C8
:1009E000A44510D1C46D012504F01F04806805FAE8
:1009F00004F4CEF804404028CCF80430DBD0CCF826
:100A00000810CCF80C2070BD7047000000000000FA
:100A1000EFF3108072B600BFFEE700000000000098
:100A20002DE9F041044601F0FBFD1CB3054694F8A6
:100A30003500022822D140F20F472668C4F202078F
:100A400040F26F48BE426FF00E00C4F202081DDC97
:100A50006F21C4F202018E422ADC3F21C4F202015E
:100A60008E4241DC1021C4F202018E4263D0282163
:100A70005CE000BF0120BDE8F08100BF8020606520
:100A80000120002184F83410BDE8F08146451BDCCC
:100A900040F23F41C4F202018E422DDC40F210418F
:100AA000C4F202018E4246D040F228413EE000BF2F
:100AB0009F21C4F202018E4228DC7021C4F202019F
:100AC0008E4238D0882131E040F29F41C4F20201C9
:100AD0008E4223DC40F27041C4F202018E422AD0E1
:100AE00040F2884122E000BF4021C4F202018E4260
:100AF00021D058211AE000BF40F24041C4F2020167
:100B00008E4218D040F2584110E000BFA021C4F23C
:100B100002018E420FD0B82108E000BF40F2B84178
:100B2000C4F202018E4206D040F2A041C4F202019A
:100B30008E42314607D13146306820F01E0041F820
:100B4000140B6FF080000A68464500EA0200086056
:100B50001ADC9F20C4F20200864233DC5720C4F224
:100B6000020086425ADC1020C4F20200864200F0E5
:100B700097802820C4F20200864200F09180402035
:100B8000C4F202008AE000BF45F22F40C5F6020021
:100B900086422DDC40F2B740C4F2020086424BDCB4
:100BA00040F27040C4F20200864279D040F28840A0
:100BB000C4F20200864273D040F2A040C4F20200A8
:100BC0006CE000BF40F22740C4F20200864243DCE2
:100BD000A020C4F20200864262D0B820C4F2020013
:100BE00086425DD040F21040C4F2020056E000BFE1
:100BF00045F26B40C5F6020086423FDC45F23040CC
:100C0000C5F6020086424BD045F24440C5F60200CC
:100C1000864245D045F258403EE000BF5820C4F21D
:100C2000020086423CD07020C4F20200864237D0D7
:100C30008820C4F2020031E040F2B840C4F2020061
:100C400086422DD045F20840C5F60200864227D0E4
:100C500045F21C4020E000BF40F22840C4F20200F0
:100C600086421DD040F24040C4F20200864217D0B6
:100C700040F25840C4F2020010E000BF45F26C4060
:100C8000C5F6020086420BD045F29440C5F602003C
:100C9000864205D045F28040C5F60200864204D166
:100CA000206E016821F480710160306820F001003D
:100CB000306000BF3068C00710D001F0B1FC401BAD
:100CC0000628F7D320206065032084F83500012032
:100CD000002184F83410BDE8F08100BF20680821AD
:100CE000B8424FF03F0211DC6F23C4F20203984276
:100CF0001EDC3F23C4F20203984235DC1023C4F209
:100D00000203984257D0282350E000BF40451BDC27
:100D100040F23F43C4F2020398422DDC40F21043FC
:100D2000C4F20203984246D040F228433EE000BF9E
:100D30009F23C4F20203984228DC7023C4F202030A
:100D4000984238D0882331E040F29F43C4F2020336
:100D5000984223DC40F27043C4F2020398422AD046
:100D600040F2884322E000BF4023C4F202039842CD
:100D700021D058231AE000BF40F24043C4F20203DE
:100D8000984218D040F2584310E000BFA023C4F2AC
:100D9000020398420FD0B82308E000BF40F2A043FE
:100DA000C4F20203984206D040F2B843C4F20203F0
:100DB000984240F0C580D4E9163707F01F07404538
:100DC00002FA07F25A5019DC9F21C4F2020188424C
:100DD00032DC5721C4F20201884259DC1021C4F2EE
:100DE0000201884200F096802821C4F20201884264
:100DF00000F090804021C4F2020189E045F22F41C9
:100E0000C5F6020188422DDC40F2B741C4F202016E
:100E100088424BDC40F27041C4F20201884279D032
:100E200040F28841C4F20201884273D040F2A041EE
:100E3000C4F202016CE000BF40F22741C4F202019B
:100E4000884243DCA021C4F20201884262D0B8216A
:100E5000C4F2020188425DD040F21041C4F20201A6
:100E600056E000BF45F26B41C5F6020188423FDC07
:100E700045F23041C5F6020188424BD045F244416B
:100E8000C5F60201884245D045F258413EE000BF18
:100E90005821C4F2020188423CD07021C4F2020100
:100EA000884237D08821C4F2020131E040F2B841D3
:100EB000C4F2020188422DD045F20841C5F6020174
:100EC000884227D045F21C4120E000BF40F2284173
:100ED000C4F2020188421DD040F24041C4F2020136
:100EE000884217D040F25841C4F2020110E000BF1E
:100EF00045F26C41C5F6020188420BD045F294419F
:100F0000C5F60201884205D045F28041C5F60201CE
:100F100088420BD1616EA26EE06E4A6030B101680A
:100F200021F480710160D4E91C014160012084F842
:100F300035000020002184F83410BDE8F08100BFA6
:100F40000421012237E70000F0B190F835100229A2
:100F500018D180B540F20F420168C4F202029142FA
:100F600014DC6F23C4F20203994225DC3F23C4F250
:100F7000020399423CDC1023C4F2020399425DD083
:100F8000282357E0802141650120704740F26F43DC
:100F9000C4F2020399421BDC40F23F43C4F2020355
:100FA00099422DDC40F21043C4F20203994245D02D
:100FB00040F228433EE000BF9F23C4F2020399425F
:100FC00028DC7023C4F20203994237D0882331E031
:100FD00040F29F43C4F20203994223DC40F2704383
:100FE000C4F20203994229D040F2884322E000BFB4
:100FF0004023C4F20203994220D058231AE000BFD4
:1010000040F24043C4F20203994217D040F25843E1
:1010100010E000BFA023C4F2020399420ED0B8230F
:1010200008E000BF40F2B843C4F20203994205D081
:1010300040F2A043C4F20203994275D191424FF0AD
:10104000040280F8352011DC6F20C4F202008142D6
:1010500022DC3F20C4F20200814239DC1020C4F2BD
:101060000200814259D0282054E000BF40F26F4076
:10107000C4F2020081421BDC40F23F40C4F2020095
:1010800081422DDC40F21040C4F20200814244D083
:1010900040F228403EE000BF9F20C4F2020081429F
:1010A00028DC7020C4F20200814236D0882031E072
:1010B00040F29F40C4F20200814223DC40F27040C3
:1010C000C4F20200814228D040F2884022E000BFF2
:1010D0004020C4F2020081421FD058201AE000BF15
:1010E00040F24040C4F20200814216D040F2584023
:1010F00010E000BFA020C4F2020081420DD0B82051
:1011000008E000BF40F2B840C4F20200814204D0BF
:1011100040F2A040C4F202008142086820F00100C1
:101120000860002080BD00BF0A6822F00E020A603D
:1011300045F25742C5F6020291420A6822F00102C6
:101140000A600FDC45F22F42C5F60202914219DC1B
:1011500045F20842C5F60202914229D045F21C42EE
:1011600022E000BF45F27F42C5F60202914213DC45
:1011700045F25842C5F60202914219D045F26C423E
:1011800012E000BF45F23042C5F6020291420FD094
:1011900045F2444208E000BF45F29442C5F602021F
:1011A000914205D045F28042C5F6020291421AD121
:1011B000D0E9181CD0E916E30A6822F480720A60AC
:1011C00003F01F01012202FA01F1CEF80410816E32
:1011D000CCF80410C16E31B10A6822F480720A6042
:1011E000D0E91C124A60012180F83510016D0022FF
:1011F000002980F8342094D08847002080BD00006A
:101200002DE9F04782B00021019140F2080148F237
:10121000B513C2F20041C1F64E33856D40F26F49FD
:101220000A680168C4F202092E68A2FB0328494536
:101230002A6815DC9F22C4F2020291422CDC57225C
:10124000C4F20202914251DC1022C4F20202914225
:101250007BD02822C4F20202914276D040226FE075
:1012600045F22F43C5F60203994229DC40F2B74309
:10127000C4F20203994245DC40F27042C4F2020219
:10128000914262D040F28842C4F2020291425CD0A4
:1012900040F2A04254E000BF40F22742C4F20202F2
:1012A00091423FDCA022C4F2020291424DD0B8220A
:1012B000C4F20202914248D040F2104240E000BF26
:1012C00045F26B43C5F60203994275DC45F23043A3
:1012D000C5F60203994200F0828045F24443C5F608
:1012E000020399427BD045F2584373E05822C4F27E
:1012F0000202914229D07022C4F20202914224D00B
:1013000088221DE040F2B843C4F2020399421CD087
:1013100045F20843C5F60203994260D045F21C43EA
:1013200058E000BF40F22842C4F2020291420CD0C1
:1013300040F24042C4F20202914206D040F25842CA
:10134000C4F20202914240F05383C26D082302F0BE
:101350001F0240F20F4A9340C4F2020A334200F0E7
:10136000DE8051454FF0040412DC6F27C4F20207FF
:10137000B9426DDC3F27C4F20207B94200F39C80FA
:101380001027C4F20207B94200F0BD802827B5E05B
:10139000494569DC40F23F47C4F20207B94200F315
:1013A000938040F21047C4F20207B94200F0AB80CC
:1013B00040F22847A2E000BF45F26C43C5F60203A5
:1013C00099420CD045F28043C5F60203994206D0FB
:1013D00045F29443C5F60203994240F009830B6835
:1013E000C76D07F01F070426BE40164218BF13F052
:1013F000040423D10226BE40164218BF13F0020493
:1014000042D1FA40120740F1F38213F0080200F0D3
:10141000EF820A6822F00E020A60012101FA07F247
:101420006A60416580F83510C16C00294FF00002F8
:1014300080F8342040F0D882DAE200BF1A046E60EF
:1014400034D49A0636D40A6822F004020A6031E0E5
:101450009F27C4F20207B94240DC7027C4F202079A
:10146000B94250D0882749E040F29F47C4F20207B2
:10147000B9423BDC40F27047C4F20207B94242D0A5
:1014800040F288473AE000BF1A046E6000F1B4826F
:101490009A0600F1B5820A6822F00A020A60012168
:1014A00080F83510002180F83410A9E2D90301D466
:1014B000816C98E2016C96E24027C4F20207B942BF
:1014C00021D058271AE000BF40F24047C4F202077B
:1014D000B94218D040F2584710E000BFA027C4F22C
:1014E0000207B9420FD0B82708E000BF40F2A0477A
:1014F000C4F20207B94206D040F2B847C4F202076C
:10150000B94218BF08240F68274208D00F6827F097
:1015100004070F60AB60436D43F001034365012393
:10152000934033426FD0514510DC6F27C4F202075D
:10153000B9421DDC3F27C4F20207B94234DC102750
:10154000C4F20207B94256D028274FE049451BDCB8
:1015500040F23F47C4F20207B9422DDC40F2104787
:10156000C4F20207B94246D040F228473EE000BF2D
:101570009F27C4F20207B94228DC7027C4F2020791
:10158000B94238D0882731E040F29F47C4F20207C1
:10159000B94223DC40F27047C4F20207B9422AD0B4
:1015A00040F2884722E000BF4027C4F20207B94258
:1015B00021D058271AE000BF40F24047C4F202078A
:1015C000B94218D040F2584710E000BFA027C4F23B
:1015D0000207B9420FD0B82708E000BF40F2A04789
:1015E000C4F20207B94206D040F2B847C4F202077B
:1015F000B94240F007824F693F0604D5AB60436DA6
:1016000043F0020343650423934033426FD05145B6
:1016100010DC6F27C4F20207B9421DDC3F27C4F279
:101620000207B94234DC1027C4F20207B94256D08F
:1016300028274FE049451BDC40F23F47C4F2020730
:10164000B9422DDC40F21047C4F20207B94246D03D
:1016500040F228473EE000BF9F27C4F20207B9428C
:1016600028DC7027C4F20207B94238D0882731E05D
:1016700040F29F47C4F20207B94223DC40F27047B0
:10168000C4F20207B9422AD040F2884722E000BFE4
:101690004027C4F20207B94221D058271AE000BF00
:1016A00040F24047C4F20207B94218D040F258470E
:1016B00010E000BFA027C4F20207B9420FD0B8273C
:1016C00008E000BF40F2A047C4F20207B94206D0CA
:1016D00040F2B847C4F20207B94240F09B810F685C
:1016E000BF0704D5AB60436D43F00403436510238B
:1016F00003FA02F2324200F0828051454FF00803B3
:1017000010DC6F27C4F20207B9421DDC3F27C4F288
:101710000207B94234DC1027C4F20207B94256D09E
:1017200028274FE049451BDC40F23F47C4F202073F
:10173000B9422DDC40F21047C4F20207B94246D04C
:1017400040F228473EE000BF9F27C4F20207B9429B
:1017500028DC7027C4F20207B94238D0882731E06C
:1017600040F29F47C4F20207B94223DC40F27047BF
:10177000C4F20207B9422AD040F2884722E000BFF3
:101780004027C4F20207B94221D058271AE000BF0F
:1017900040F24047C4F20207B94218D040F258471D
:1017A00010E000BFA027C4F20207B9420FD0B8274B
:1017B00008E000BF40F2A047C4F20207B94206D0D9
:1017C00040F2B847C4F20207B94218BF04230F68B9
:1017D0001F4214D0AA600A6852030A6808D4D205CE
:1017E00008D40A6822F008020A60016C21B906E0F8
:1017F000110351D4016C11B1044688472046C16DD4
:1018000001F01F02202101FA02F3334200F0AF8001
:1018100001681027514511DC6F26C4F20206B1425F
:101820001EDC3F26C4F20206B14239DC1026C4F2A7
:101830000206B1425BD0282654E000BF49451BDCBC
:1018400040F23F46C4F20206B14231DC40F210469B
:10185000C4F20206B1424AD040F2284642E000BF3C
:101860009F26C4F20206B1422CDC7026C4F20206A6
:10187000B1423CD0882635E040F29F46C4F20206D1
:10188000B14227DC40F27046C4F20206B1422ED0CB
:1018900040F2884626E000BF816C0029ACD1AEE75B
:1018A0004026C4F20206B14221D058261AE000BFF9
:1018B00040F24046C4F20206B14218D040F2584607
:1018C00010E000BFA026C4F20206B1420FD0B82635
:1018D00008E000BF40F2A046C4F20206B14206D0C2
:1018E00040F2B846C4F20206B14218BF02270E68A1
:1018F0003E423CD0AB6090F83530042B0B681DD1D4
:1019000023F016030B604B6923F080034B61036CDB
:101910000BB9836C1BB10B6823F008030B603F21EC
:101920009140A960012180F83510016D00294FF028
:10193000000280F8342057D15AE000BF5A030A68E9
:101940000CD4D2050ED40A6822F010020A600121DC
:1019500080F83510002180F8341003E0110301D421
:10196000416C00E0C16B11B1044688472046416DCF
:1019700000293DD0416DC90734D0042180F83510CD
:1019800001684FEA98220B6823F001030B60019B6A
:101990000133019393421AD80B68DB0717D0019BE0
:1019A00001330193934212D80B68DB070FD0019BE0
:1019B0000133019393420AD80B68DB0707D0019BE0
:1019C00001330193934202D80B68DB07DFD109682A
:1019D000C9074FF0030108BF012180F8351000212D
:1019E00080F83410C16C19B102B0BDE8F047084767
:1019F00002B0BDE8F08700BFD90301D4416CF2E723
:101A0000C16BF0E70B680423934033427FF4FFADD2
:101A10006DE600BF0B686AE62DE9F041044600F070
:101A2000FFFDFCB140F26F4805462068C4F2020891
:101A300040451BDC9F21C4F20201884232DC572161
:101A4000C4F20201884259DC1021C4F2020188422A
:101A500000F083802821C4F20201884200F07D80DA
:101A6000402175E00120BDE8F08100BF45F22F4123
:101A7000C5F60201884229DC40F2B741C4F20201F6
:101A8000884247DC40F27041C4F20201884264D0CF
:101A900040F28841C4F2020188425ED040F2A04187
:101AA00056E000BF40F22741C4F20201884241DC07
:101AB000A021C4F2020188424FD0B821C4F2020131
:101AC00088424AD040F2104142E000BF45F26B41EB
:101AD000C5F60201884200F3D18045F23041C5F6D7
:101AE0000201884200F0DD8045F24441C5F6020162
:101AF000884200F0D68045F25841CDE05821C4F22A
:101B00000201884229D07021C4F20201884224D007
:101B100088211DE040F2B841C4F2020188421CD085
:101B200045F20841C5F60201884200F0BA8045F24C
:101B30001C41B1E040F22841C4F2020188420CD0BD
:101B400040F24041C4F20201884206D040F25841BE
:101B5000C4F20201884240F03981022184F8351034
:101B6000002184F83410016821F00101016000BFF8
:101B700020680168C9070DD000F052FD401B0628FF
:101B8000F6D320206065032084F835000120BDE8ED
:101B9000F08100BF48F23F0204F108060168CFF669
:101BA0001062114065694CCE1143A2691943E36983
:101BB0003143266A0D43616A2B43042943EA060335
:101BC00043EA020303D1D4E90B652E43334365682E
:101BD000A5F12906292E00F23182DFE816F02B004C
:101BE0002B002B002B002B002B002F022F022F028B
:101BF0002F022F022F022F022F022F022F022F025D
:101C00002F022F022F022F022F022B002B002B005E
:101C10002B002F022F022F022F022B002B002F024E
:101C20002F022F022F022F022F022B002B002B003E
:101C30002B0000BF43F4801303600429436923F0A1
:101C4000070341EA030140F0DD80D4E90A53002B89
:101C500041EA050100F0D680B2F5005F00F0B880DF
:101C6000002A40F0C180022D00F0C180012D00F05B
:101C7000B580002D00F0BB80C4E000BF45F26C4190
:101C8000C5F6020188420CD045F28041C5F602013A
:101C9000884206D045F29441C5F60201884240F0E0
:101CA000958004F1080E022184F83510002184F893
:101CB00034100168A3699EE80450A2F18005E76929
:101CC000B5FA85F566696D09402A4FEA853543EA1C
:101CD00007026FF3101142EA060208BF102541EA1D
:101CE000DC0142EA0E02236A294341EAD20141EAB9
:101CF000131140F80819C0B2CD2148433C2101EA34
:101D00009020E0652046FEF767FCE16D012201F0BE
:101D10001F0102FA01F141602068404500F3818013
:101D20009F21C4F20201884214DC5721C4F202014F
:101D3000884227DC1021C4F20201884200F0C780EB
:101D40002821C4F20201884200F0C1804021C4F27F
:101D50000201B9E040F22741C4F20201884221DCCD
:101D6000A021C4F20201884200F0B180B821C4F27F
:101D70000201884200F0AB8040F21041C4F202013F
:101D8000A2E000BF5821C4F20201884200F09F8007
:101D90007021C4F20201884200F099808821C4F2C7
:101DA000020191E040F22841C4F20201884200F0B1
:101DB0008E8040F24041C4F20201884200F08780E8
:101DC00040F25841C4F202017EE000BF4020D9E653
:101DD000032D17D8DFE805F00E0B0E02A3F1C07239
:101DE000B2FA82F2520904E0032D03D30AD1C3F3FD
:101DF00000623AB140206065012084F83500BDE8FA
:101E0000F08100BF41612046FEF7E6FBE16D3F2215
:101E100001F01F0102FA01F18160206840457FF75F
:101E20007FAF45F22F41C5F60201884216DC40F231
:101E3000B741C4F20201884226DC40F27041C4F28C
:101E40000201884243D040F28841C4F20201884234
:101E50003DD040F2A041C4F2020135E045F26B41B1
:101E6000C5F6020188421FDC45F23041C5F6020189
:101E700088422CD045F24441C5F60201884226D062
:101E800045F258411EE000BF40F2B841C4F20201E1
:101E900088421CD045F20841C5F60201884216D09E
:101EA00045F21C410EE000BF45F26C41C5F602014F
:101EB00088420CD045F29441C5F60201884206D012
:101EC00045F28041C5F60201884240F0E18045F2CA
:101ED000574C45F6FC0EC5F6020CC5F6020E6045E1
:101EE0000EDC45F22F41C5F60201884218DC45F2AE
:101EF0000841C5F60201884228D045F21C4121E084
:101F000045F27F41C5F60201884213DC45F2584193
:101F1000C5F60201884219D045F26C4112E000BFBB
:101F200045F23041C5F6020188420FD045F24441E6
:101F300008E000BF45F29441C5F60201884205D091
:101F400045F28041C5F60201884247D100F0FC010C
:101F50004CF6CD420839CCF6CC42A1FB0212AEF1D0
:101F6000FC05AEF17C061309A26803F01F01802A6C
:101F70004FF0010205EB8305256602FA01F2666661
:101F8000A26605D100206060286072601EE000BF7C
:101F90006368D9B25F1E072F2960726016D84E1E83
:101FA000082E19D260450EF1440237DC45F22F416C
:101FB000C5F60201884249DC45F20841C5F6020136
:101FC000884259D045F21C4152E000BF00206067B2
:101FD000C4E91B005CE000BFE06E54E000F0F801D3
:101FE0004AF6AB221039CAF6AA22A1FB021240F22D
:101FF0000F43C4F2020308251109984203F1AA060F
:102000000B4688BF05EB121340F60005B042C4F240
:10201000020505F1800628BF0B46A5E745F27F4182
:10202000C5F6020188421BDC45F25841C5F60201A3
:10203000884221D045F26C411AE000BF25F0030729
:10204000742F08BF43F48013F6E500BF45F230411A
:10205000C5F6020188420FD045F2444108E000BFB6
:1020600045F28041C5F60201884205D045F294410F
:10207000C5F60201884213D10EEB83000121E06610
:10208000B1402267616700210160D4E91C01416011
:1020900000206065012184F83510BDE8F08100BFA3
:1020A00040F60000C4F2020000F1FC0E00F5A07240
:1020B000E2E700000000000030B110B590F83440B5
:1020C000012C03D1022010BD01207047012480F8AB
:1020D000344090F83540012C2CD1022480F8354052
:1020E00000244465D0F800C0DCF8004024F001046E
:1020F000CCF800400446FEF703FB40F20F4C20688A
:10210000C4F2020C40F26F416045C4F2020119DCD6
:102110006F23C4F20203984226DC3F23C4F2020379
:1021200098423DDC1023C4F2020398425FD028237A
:1021300058E000BF4FF400614165002180F8341081
:10214000012010BD88421BDC40F23F43C4F2020371
:1021500098422DDC40F21043C4F20203984246D06C
:1021600040F228433EE000BF9F23C4F2020398429E
:1021700028DC7023C4F20203984238D0882331E06F
:1021800040F29F43C4F20203984223DC40F27043C2
:10219000C4F2020398422AD040F2884322E000BFF2
:1021A0004023C4F20203984221D058231AE000BF12
:1021B00040F24043C4F20203984218D040F2584320
:1021C00010E000BFA023C4F2020398420FD0B8234E
:1021D00008E000BF40F2B843C4F20203984206D0C0
:1021E00040F2A043C4F20203984240F02F810368FA
:1021F0000B2262F344030360226C1AB108230268C5
:102200001A430260884219DC9F22C4F20202904203
:1022100032DC5722C4F20202904259DC1022C4F28E
:102220000202904200F096802822C4F202029042FC
:1022300000F090804022C4F2020289E045F22F4271
:10224000C5F6020290422DDC40F2B742C4F202020F
:1022500090424BDC40F27042C4F20202904279D0CC
:1022600040F28842C4F20202904273D040F2A0428F
:10227000C4F202026CE000BF40F22742C4F2020244
:10228000904243DCA022C4F20202904262D0B82203
:10229000C4F2020290425DD040F21042C4F2020247
:1022A00056E000BF45F26B42C5F6020290423FDCA9
:1022B00045F23042C5F6020290424BD045F244420C
:1022C000C5F60202904245D045F258423EE000BFBA
:1022D0005822C4F2020290423CD07022C4F20202A0
:1022E000904237D08822C4F2020231E040F2B84274
:1022F000C4F2020290422DD045F20842C5F6020215
:10230000904227D045F21C4220E000BF40F2284214
:10231000C4F2020290421DD040F24042C4F20202D6
:10232000904217D040F25842C4F2020210E000BFBF
:1023300045F26C42C5F6020290420BD045F294423F
:10234000C5F60202904205D045F28042C5F602026F
:10235000904274D1236E1A68D20303D51A6842F4EE
:1023600080721A60E36E1BB11A6842F480721A60C0
:10237000604511DC6F21C4F2020188421EDC3F215E
:10238000C4F20201884235DC1021C4F20201884205
:1023900055D0282150E000BF88421BDC40F23F416D
:1023A000C4F2020188422DDC40F21041C4F2020165
:1023B000884244D040F228413EE000BF9F21C4F251
:1023C0000201884228DC7021C4F20201884236D022
:1023D000882131E040F29F41C4F20201884223DCAF
:1023E00040F27041C4F20201884228D040F2884194
:1023F00022E000BF4021C4F2020188421FD05821D0
:102400001AE000BF40F24041C4F20201884216D0F7
:1024100040F2584110E000BFA021C4F202018842FE
:102420000DD0B82108E000BF40F2B841C4F202016B
:10243000884204D040F2A041C4F2020188420168FF
:1024400041F001010160002010BD00BF02680523BA
:1024500063F343020260226C002A3FF4D3AE0423EC
:10246000CDE60000000000002DE9F04F83B00F68BA
:10247000002F00F0C98000F1264642F2004506F127
:10248000FF76C5F602050A22A8424FEAB62540F2B9
:10249000040C08BF092200F120030093082DC5F6A3
:1024A000000C38BF4FEAB622002400264FF0000887
:1024B00001920AE008F101080F6837FA08F206F104
:1024C000020604F1040400F09F80012202FA08FED3
:1024D00017EA0E09EED0D1F804B003220BF003077F
:1024E000B2407D1E6FEA020A012D11D88268CD68C4
:1024F00002EA0A02B5402A438260CBF30015426823
:1025000022EA0E0205FA08F52A43426004E000BF01
:10251000032F01D103271FE0C2688D6802EA0A0277
:10252000B540022F42EA0502C26015D16FF00302E6
:1025300004F01C0502EA580B009A0F2352F80BE036
:10254000AB400F692EEA0303AF403B4342F80B3028
:10255000D1F804B00BF00307026807FA06F302EAA9
:102560000A021BF4403F42EA03020260A2D044F296
:10257000F44340F2084EC5F60203C5F6000E0F25DF
:102580001A6842F002021A601A6802F0020202920D
:1025900028F00302029B04F00C0352F80E709D40D9
:1025A000AF43019D05FA03F33B4342F80E304FF071
:1025B000B04EDEF800204B6842EA0907DD0258BF42
:1025C00022EA09079D02CEF80070DCF8002042EAFA
:1025D000090758BF22EA09079D03CCF80070DCF810
:1025E000802042EA090758BF22EA0907DB03CCF83A
:1025F0008070DCF87C2042EA090758BF22EA09070C
:10260000CCF87C7056E700BF03B0BDE8F08F000047
:10261000002A08BF09048161704700000000000023
:1026200040F24030C2F200400068704700000000F5
:1026300040F2000040F24031C2F20040C2F20041DC
:1026400000780A681044086070470000000000002D
:1026500080B5032000F0ACF801F01AF944F21841FB
:1026600047F20273C5F60201C0F600030A68C2F31E
:1026700003229A5C096801F00F0102F01F02595C05
:10268000D04040F20C02C2F2004201F01F0120FAD9
:1026900001F1116040F20801C2F2004108600F2010
:1026A00000F00AF800281CBF012080BD00F02CF8C3
:1026B000002080BD00000000B0B540F20005C2F26D
:1026C00000452978F1B1044640F20800C2F200400A
:1026D0004FF47A72B2FBF1F10068B0FBF1F001F057
:1026E000FBFB0F2C01464FF001000AD8002918BF50
:1026F000B0BD4FF0FF300022214600F029F8002045
:102700006C60B0BD0120B0BD81B044F2F440C5F6AC
:102710000200016841F002010160006800F002005F
:102720000090009801B07047002848BF704700F043
:102730001F01012202FA01F14EF20012C0F34A1009
:10274000CEF2000242F820107047000000000000A6
:1027500070B54EF60C5C4FF0FF36CEF2000C00F177
:10276000604505F56445DCF80030C3F3022E8EF0B9
:102770000703042B28BF0423BEF1030406FA03F366
:1027800021EA030100F00F0338BF0024043B0028B6
:10279000634406FA04F048BF03F10C05A14022EAA5
:1027A000000008430001287070BD00000000000018
:1027B0004EF60C514FF6FF03CEF200010A681A40A4
:1027C00060F30A2242F0806040F0FD7008607047BC
:1027D000B0B544F60C05C5F6020529684907296815
:1027E00006D401F00701081A18BF0120B0BD00BFD0
:1027F00021F0070108432860FFF712FF044600BFDD
:1028000055F8080C800407D4FFF70AFF001BB0F549
:102810007A7FF5D90120B0BD0020B0BD00000000D6
:1028200080B500F0ADFF44F2204147F20272C5F6D8
:102830000201C0F600020968C1F30211515C01F007
:102840001F01C84080BD000080B544F2384EC5F677
:10285000020E5EF8103C5EF8101C5EF80C2CC1F302
:10286000053CDEF80410BCF1000F15D0C908D206F3
:1028700001EAE2716FF35F3100EE101A03F0030119
:102880000229B8EE400A0DD081B95EF8381C8906DD
:1028900010D49FED361A1BE000218160C0E90011C1
:1028A00080BD00BF9FED301A12E000BF9FED2D1AD2
:1028B0000EE000BF5EF8381C49F20002C0F2D032D0
:1028C000C1F3C10122FA01F101EE101AB8EE411A6A
:1028D000DEF800109FED263A6FF35F2102EE101A2A
:1028E000DEF80010C1F34621B8EE422A00EE032ABA
:1028F00000EE10CAB7EE003AB8EE400A81EE000AC8
:1029000032EE031A02EE101AB8EE422A20EE010A45
:1029100032EE031A80EE011ABCEEC11A80ED001AE5
:10292000DEF80010C1F3064101EE101AB8EE411AAC
:1029300031EE031A80EE011ABCEEC11A80ED011AC5
:10294000DEF80010C1F3066101EE101AB8EE411A6C
:1029500031EE031A80EE010ABCEEC00A10EE101A26
:10296000816080BD0024744A001BB74B0024744C66
:10297000000000390000000080B544F2404EC5F66A
:10298000020E5EF8183C5EF8181C5EF8142CC1F3B9
:10299000055CDEF80410BCF1000F15D0C908D205A3
:1029A00001EAE2716FF35F3100EE101A03F00301E8
:1029B0000229B8EE400A0DD081B95EF8401C8906A4
:1029C00010D49FED361A1BE000218160C0E9001190
:1029D00080BD00BF9FED301A12E000BF9FED2D1AA1
:1029E0000EE000BF5EF8401C49F20002C0F2D03297
:1029F000C1F3C10122FA01F101EE101AB8EE411A39
:102A0000DEF800109FED263A6FF35F2102EE101AF8
:102A1000DEF80010C1F34621B8EE422A00EE032A88
:102A200000EE10CAB7EE003AB8EE400A81EE000A96
:102A300032EE031A02EE101AB8EE422A20EE010A14
:102A400032EE031A80EE011ABCEEC11A80ED001AB4
:102A5000DEF80010C1F3064101EE101AB8EE411A7B
:102A600031EE031A80EE011ABCEEC11A80ED011A94
:102A7000DEF80010C1F3066101EE101AB8EE411A3B
:102A800031EE031A80EE010ABCEEC00A10EE101AF5
:102A9000816080BD0024744A001BB74B0024744C35
:102AA00000000039000000002DE9F0470446C0781E
:102AB00044F22C480007C5F6020828D5606E4FEA9C
:102AC000305103292AD8DFE801F0030B131B00BFA4
:102AD000D8F8001041F40031C8F8001010E000BF31
:102AE00004F10800022102F06FFE064680B906E0FC
:102AF00004F12800022102F0FBFE064640B9606E98
:102B0000D8F8241021F440110843C8F82400002606
:102B10006078C00706D135462FE000BF01266078F7
:102B2000C007F8D0A06D04283ED83546DFE800F095
:102B300004140E0B0B0000BFD8F80000354640F41B
:102B40000030C8F800002F46C5B90DE004F1280098
:102B5000002102F0CDFE04E004F10800002102F0A3
:102B600033FE05462F464DB9D8F82400A16D20F05C
:102B7000070000250843C8F824003746607840075E
:102B80003AD5D4F8A4004FEA7050052818D8DFE8E9
:102B900000F0031D11232323D8F8000040F4003077
:102BA000C8F8000018E000BF012501276078400741
:102BB000E7D421E004F12800002102F099FE0AE0A8
:102BC00001250126607800071AD44FE004F10800BF
:102BD000002102F0F9FD05462E461DB16078000780
:102BE0000ED443E0D8F82C00D4F8A41020F46000F0
:102BF00000250843C8F82C003E466078000735D50C
:102C0000D4F8A8004FEA3060052813D8DFE800F0B8
:102C100004180C1E1E1E00BFD8F8000040F400303F
:102C2000C8F8000012E000BF04F12800002102F003
:102C30005FFE0AE001250127E07880071AD434E01E
:102C400004F10800002102F0BFFD05462F461DB12A
:102C5000E07880070ED428E0D8F82C00D4F8A8102B
:102C600020F0E06000250843C8F82C003746E078E3
:102C700080071AD5E06C4FEA3010032838D8DFE817
:102C800000F009032D0900BFD8F8000040F400301F
:102C9000C8F800002E464DB9D8F82000E16C20F0AD
:102CA000300000250843C8F820003E466078C00682
:102CB00039D5E06D4FEA3030042847D8DFE800F01E
:102CC00004221C0A0A0000BFD8F8000040F40030BB
:102CD000C8F800002F463DBB1CE000BF04F108000F
:102CE000022102F071FD0546002D2E46DED1D3E70C
:102CF00001250126DAE700BF04F12800002102F0D7
:102D0000F7FD04E004F10800002102F05DFD054636
:102D10002F464DB9D8F82400E16D20F4E04000259D
:102D20000843C8F8240037466078800635D5206E01
:102D30004FEA3040052815D8DFE800F0041A0E04E9
:102D4000040400BF2E46DDB91EE000BF01250127A7
:102D500060788006EBD420E004F12800012102F025
:102D6000C7FD0AE0012501266078400619D449E034
:102D700004F10800012102F027FD05462E461DB191
:102D8000607840060DD43DE0D8F82400216E20F490
:102D9000E02000250843C8F824003E46607840063D
:102DA00030D5D4F8AC004FEA307005280ED8DFE8F3
:102DB00000F00313070303032F46ADB918E000BF6B
:102DC00004F12800012102F093FD0AE0012501270A
:102DD000607800061AD43CE004F10800012102F0FA
:102DE000F3FC05462F461DB1607800060ED430E096
:102DF000D8F82C00D4F8AC1020F0E04000250843AF
:102E0000C8F82C0037466078000622D5E06E58B12D
:102E1000B0F1005F0CD0B0F1805F37D1D8F800007E
:102E200040F40030C8F800002E469DB908E000BF0D
:102E300004F10800012102F0C7FC05462E464DB9F9
:102E4000D8F82400E16E20F0405000250843C8F86F
:102E500024003E46E078C0071DD0A06C032855D85A
:102E6000DFE800F008024A08D8F8000040F400301B
:102E7000C8F80000A9467DB9D8F82000A16C20F060
:102E8000030000250843C8F8200004E001250126BE
:102E9000E078C007E1D1B146A078400602D44F46A1
:102EA00018E000BFD8F8D40340F48070C8F8D40309
:102EB000FFF7B6FB064600BFD8F8D403C00507D419
:102EC000FFF7AEFB801B6428F6D90325032701E03A
:102ED0002F46FDB12078C00700F06F80A06F4FEA49
:102EE000F00005284ED8DFE800F003534703030342
:102EF000002D2E4654D157E004F10800022102F0C3
:102F000063FC0546002DA946C6D1B5E701254FF063
:102F10000109C1E7D8F84410D4F8B000414011F4D9
:102F2000407F11D0D8F84410D8F8442042F48032C1
:102F3000C8F84420D8F8442021F4407122F48032AB
:102F4000C8F84420C8F84410B0F5807F40F0D08223
:102F5000FFF766FB064641F2883A0325032700BFC8
:102F6000D8F84400800700F1C182FFF759FB801BAD
:102F70005045F5D9AEE700BF04F12800012102F069
:102F8000B7FC0AE0012501262078800719D446E025
:102F900004F10800012102F017FC05462E461DB180
:102FA000207880070DD43AE0D8F82800A16F20F0EF
:102FB000380000250843C8F828003E4620788007DE
:102FC0002DD5606F05280FD8DFE800F00414080441
:102FD000040400BF2F46ADB918E000BF04F128007B
:102FE000012102F085FC0AE0012501272078400735
:102FF00019D447E004F10800012102F0E5FB054681
:103000002F461DB1207840070DD43BE0D8F82800AA
:10301000616F20F0070000250843C8F828003746F4
:10302000207840072ED5D4F8900005280ED8DFE888
:1030300000F00313070303032E46ADB918E000BFE9
:1030400004F12800012102F053FC0AE001250126C9
:10305000207880061AD44BE004F10800012102F028
:10306000B3FB05462E461DB1207880060ED43FE006
:10307000D8F82C00D4F8901020F007000025084361
:10308000C8F82C003E462078800631D5D4F88C0054
:103090004FEA307005280FD8DFE800F00414080468
:1030A000040400BF2F46ADB918E000BF04F12800AA
:1030B000022102F01DFC0AE00125012720784006CC
:1030C0001AD44BE004F10800002102F07DFB054614
:1030D0002F461DB1207840060ED43FE0D8F82800D6
:1030E000D4F88C1020F0E04000250843C8F82800F0
:1030F00037462078400631D5D4F898004FEAB02002
:1031000005280FD8DFE800F004140804040400BF09
:103110002E46ADB918E000BF04F12800022102F0EC
:10312000E7FB0AE001250126207800061AD44EE0CC
:1031300004F10800002102F047FB05462E461DB1B0
:10314000207800060ED442E0D8F82C00D4F898106D
:1031500020F4E05000250843C8F82C003E462078B3
:10316000000634D5D4F89C004FEA7030052815D8F5
:10317000DFE800F0041A0E04040400BF2F46E5B196
:103180002068010727D4C1063ED4000355D477E058
:1031900004F12800022102F0ABFB0AE0012501271F
:1031A00020680107EFD516E004F10800002102F0C5
:1031B0000BFB0546002D2F46E2D1D8F82C00D4F8A1
:1031C0009C1020F4604000250843C8F82C003746C6
:1031D00020680107D7D5D4F88000B0F5805F09D109
:1031E00004F12800022102F083FB002818BF012708
:1031F000D4F88000D8F8281021F440510843C8F8CA
:1032000028002068C106C0D5D4F89400B0F5807FAE
:1032100009D104F12800022102F06AFB002818BF3E
:103220000127D4F89400D8F82C1021F440710843F9
:10323000C8F82C002068000322D5D4F8A000B0F50F
:10324000003F11D0B0F5803F08D0002844D104F1F0
:103250000800002102F0B8FA05E000BF04F12800E0
:10326000022102F045FB05462E4655B9D8F82C0040
:10327000D4F8A01020F4403000250843C8F82C00F2
:103280003E46A07840072CD5D4F88400B0F5401F06
:103290000BD0B0F5001F0BD0B0F5801F2AD1D8F8A5
:1032A000000040F40030C8F800002F46D5B907E010
:1032B00004F12800012102F01BFB05462F468DB9C1
:1032C000D8F82800D4F8841020F4401000250843D2
:1032D000C8F8280005E000BF01250126A0784007B6
:1032E000D2D43746A078C00709D13E46216888006D
:1032F00015D532E001250127A078C007F5D0206D53
:10330000B0F5803F10D018BBD8F8000040F4003072
:10331000C8F800002E4685B1216888001DD4606879
:103320008A0326D465E000BF04F10800022102F000
:103330004BFA0546002D2E46EED1D8F82000216D1F
:1033400020F4803000250843C8F82000CDE700BFF6
:103350000125012621688800E1D504F12800022119
:1033600002F0C6FA002818BF0126D4E900108A032B
:103370003FD5E26F6FF0010303EB3223022B0BD337
:103380004FEA322343B1012B40F0AA80D8F8003035
:1033900043F40033C8F8003025B3CA022CD48A02A3
:1033A00034D44A003CD4CA0F49D1090251D4C107D0
:1033B0005AD1810763D441076CD4010776D4C10682
:1033C00000F18080800607D504F12800022102F078
:1033D0008FFA002818BF0125002D18BF01252846A7
:1033E000BDE8F087D8F8283023F440731A43C8F8B2
:1033F00028203546CA02D2D5D8F82420236F22F0DF
:1034000000421A43C8F824208A02CAD5D8F82420DA
:10341000A36E22F080721A43C8F824204A00C2D555
:1034200058F81C2C22F4004248F81C2CD4F8B42084
:1034300058F81C3C1A4348F81C2CCA0FB5D0D8F8D1
:103440002020636D22F040521A43C8F82020090260
:10345000ADD5D8F82810D4F8882021F440011143C4
:10346000C8F82810C107A4D004F10800002102F018
:10347000ABF9002818BF0546606881079BD504F1A9
:103480000800012102F0A0F9002818BF0546606875
:10349000410792D504F10800022102F095F90028B5
:1034A00018BF0546606801077FF589AF04F1280061
:1034B000002102F01DFA002818BF05466068C10609
:1034C0007FF580AF04F12800012102F011FA0028F5
:1034D00018BF0546606880063FF576AF7CE700BF01
:1034E0000125CA027FF55BAF86E700BFD4F8B000C4
:1034F0004FF6CF7358F81C2CC0F2FF0300F4407154
:1035000022F47C5203EA10136FF31F30B1F5407FB1
:1035100008BF1A43002548F81C2CD8F8441008436B
:10352000C8F84400FFF7BBBC2DE9F04381B0002888
:1035300000F0208142F200090446C5F20029D9F8C2
:10354000000000F00F0088420DD2D9F8000020F0F2
:103550000F000843C9F80000D9F8000000F00F0080
:10356000884240F00781206844F218464207C5F6B9
:1035700002060AD52269336803F070039A4204D91F
:10358000336823F070031A43326002070AD5626978
:10359000736803F070039A4204D9736823F07003D0
:1035A0001A437260C2060AD5A269736803F4E06325
:1035B0009A4204D9736823F4E0631A437260820666
:1035C0000AD5E269B36803F070039A4204D9B3687C
:1035D00023F070031A43B26010F002020AD0E368CD
:1035E000376807F00F07BB4204D9376827F00F0789
:1035F0003B433360C3073FD0306820F47062D4E9A6
:1036000001031A433260012856F8182C0AD0032807
:1036100004D002280AD192030BD4ABE0920108D463
:10362000A8E000BFD20504D4A4E000BF520740F1D7
:10363000A180884656F8081C21F00701084346F887
:10364000080CFEF7EDFF054641F2883756F8080CE6
:10365000616800F03800B0EBC10F09D0FEF7E0FF61
:10366000401BB842F2D9032001B0BDE8F08300BF8F
:103670002068414600F0020252B1E268336803F06C
:103680000F039A4204D2336823F00F031A433260C7
:10369000D9F8002002F00F028A420CD9D9F8002094
:1036A00022F00F020A43C9F80020D9F8002002F0E6
:1036B0000F028A425ED141070AD52169326802F0C1
:1036C0007002914204D2326822F0700211433160DC
:1036D00001070AD56169726802F07002914204D252
:1036E000726822F0700211437160C1060AD5A169A7
:1036F000726802F4E062914204D2726822F4E062DD
:103700001143716080060AD5E069B16801F070016B
:10371000884204D2B16821F070010843B06000F023
:10372000B7F8316847F20272C0F60002C1F3032114
:10373000515C336803F00F0301F01F01D25C20FAE3
:1037400001F102F01F0040F20C02C2F2004221FA25
:1037500000F0106040F2040040F20802C2F20040A3
:10376000C2F200420068116001B0BDE8F043FEF70C
:10377000A3BF00BF012001B0BDE8F083000000003E
:1037800080B500F085F844F2184147F20273C5F69F
:103790000201C0F600030A68C2F303229A5C0968BA
:1037A00001F00F0102F01F02595C20FA02F201F051
:1037B0001F0040F20C01C2F2004122FA00F0086042
:1037C00040F20801C2F200410A6080BD0000000022
:1037D00080B500F05DF844F2184C47F20273C5F66C
:1037E000020CC0F60003DCF80020C2F303229A5C4E
:1037F000DCF8001001F00F0102F01F02595CD0400C
:1038000040F20C02C2F2004201F01F0120FA01F165
:10381000116040F20802C2F200421060DCF80400BD
:10382000C0F30210185C00F01F0021FA00F080BD08
:1038300080B500F02DF844F2184C47F20273C5F63B
:10384000020CC0F60003DCF80020C2F303229A5CED
:10385000DCF8001001F00F0102F01F02595CD040AB
:1038600040F20C02C2F2004201F01F0120FA01F105
:10387000116040F20802C2F200421060DCF804005D
:10388000C0F30220185C00F01F0021FA00F080BD98
:1038900044F20041C5F602010869C0F3C2000328E2
:1038A00016D002280ED098BB0868800649F20000A6
:1038B000C0F2D03058BF70470968C1F3C101C84099
:1038C000704700BF43F20060C0F26E10704700BF47
:1038D0008A6A886AC0F3051CC86ABCF1000F4B6B8A
:1038E0001CD000F00100404200EAD3006FF35F30CB
:1038F00000EE100A02F003000228B8EE400A0FD0D2
:1039000090B90868800613D49FED251A1DE000BF0A
:1039100040F60010C0F23D00704700BF0020704725
:103920009FED1E1A11E000BF9FED1B1A0DE000BFB6
:10393000086849F20002C0F2D032C0F3C10022FA96
:1039400000F001EE100AB8EE411A086B9FED153A2F
:103950006FF35F2002EE100A086BC0F34620B8EE4A
:10396000422A013000EE032A00EE10CAB7EE003AF8
:10397000B8EE400A81EE000A32EE031A20EE010A88
:1039800001EE100AB8EE411A80EE010ABCEEC00A40
:1039900010EE100A704700BF0024744A001BB74B9A
:1039A0000024744C0000003970B3F0B581B00446B7
:1039B000007844F20046C007C5F6020626D12078FA
:1039C00080076AD5306910F03801B06A42D01829F2
:1039D00008BF5FEA80703DD0E0683168002800F0E1
:1039E0002D8121F0190108433060FEF719FE0546CC
:1039F000306840074AD4FEF713FE401B0228F7D96F
:103A0000032001B0F0BD00BF01207047306900F015
:103A10003801B06A102905D018290BD100F0030035
:103A2000022807D130688003C9D560680028C6D154
:103A3000AAE000BF61683068002900F03981B1F563
:103A4000A02F00F02D81B1F5803F40F0478140F478
:103A5000803049E130684007E06802D5002800F076
:103A60009380316821F0190108433060FEF7D8FDDA
:103A7000054600BF3068400708D4FEF7D1FD401B63
:103A800002284FF00300F5D901B0F0BD706821693C
:103A900020F0FE4040EA016070602078C0061AD530
:103AA000306900F03801B06A082907D0182940F0C1
:103AB000858000F00300012840F080803068C00558
:103AC00002D5E06980285FD1F068216A20F07C503F
:103AD00040EA0160F060207800073FD4207880063B
:103AE00056D42078400700F18180656A9DB3306923
:103AF00000F03800182840F01981012DB16A306BB0
:103B000042D001F00302A36A9A423DD1C1F30511EC
:103B1000E26A914238D10146226B6FF35F21013A8C
:103B2000914231D1C0F34622616B01398A422BD1D7
:103B3000C0F30642A16B01398A4225D1C0F3066069
:103B4000E16B013988421FD1706BA16CC0F3CC00CE
:103B5000814240F0A581002001B0F0BD60690028DD
:103B6000706F59D040F001007067FEF759FD0546AF
:103B7000706F8007B2D4FEF753FD401B0228F7D9BF
:103B8000032001B0F0BD00BF012001B0F0BD00BFB7
:103B9000A0690028306871D040F480503060FEF792
:103BA0003FFD0546306880049BD4FEF739FD401B7D
:103BB0000228F7D9032001B0F0BD00BFE06900285A
:103BC000306800F0A18040F080003060FEF728FDF2
:103BD000054600BF3068C0053FF576AFFEF720FD13
:103BE000401B02284FF00300F4D94DE7D6F800043B
:103BF00040F48070C6F80004FEF712FD054600BFD1
:103C0000D6F80004C0052BD4FEF70AFD401B64283B
:103C1000F6D9032001B0F0BD20F001007067FEF777
:103C2000FFFC0546706F80077FF558AFFEF7F8FC84
:103C3000401B02284FF00300F4D925E721F00100D2
:103C40003060FEF7EDFC0546306840077FF525AF94
:103C5000FEF7E6FC401B02284FF00300F4D913E7FF
:103C6000A168306F002900F08B80052900F080806A
:103C7000012940F09D8040F001009FE020F4805039
:103C80003060FEF7CDFC0546306880047FF529AF33
:103C9000FEF7C6FC401B02284FF00300F4D9F3E600
:103CA00040F480203060306840F480301CE000BF79
:103CB00020F480303060306820F480203060FEF7DF
:103CC000AFFC0546306880037FF579AEFEF7A8FCAF
:103CD000401B64284FF00300F4D9D5E620F480306F
:103CE0003060306820F480203060FEF799FC054693
:103CF000306880033FF563AEFEF792FC401B6428FA
:103D0000F6D9032001B0F0BD20F080003060FEF74E
:103D100087FC05463068C0057FF5DDAEFEF780FC08
:103D2000401B02284FF00300F4D9ADE6306820F0C4
:103D300080703060FEF774FC022D05460CD100BF88
:103D4000306880014CD5FEF76BFC401B02284FF019
:103D50000300F5D998E600BF306880017FF5FBAE1F
:103D6000FEF75EFC401B02284FF00300F4D98BE6FF
:103D700040F004003067306F40F001001EE000BFEB
:103D800020F001003067306F20F004003067FEF74C
:103D900047FC054641F28837306F80077FF5A5AEB6
:103DA000FEF73EFC401BB8424FF00300F4D96BE62F
:103DB00020F001003067306F20F004003067FEF71C
:103DC0002FFC054641F28837306F80073FF58DAEF6
:103DD000FEF726FC401BB8424FF00300F4D953E62F
:103DE00004F12807B06A40F2F33188438ECF0843CC
:103DF000591E40EA02104FF47E426FF35F21B06219
:103E000002EB47204FF4FE0280B2E36B0844A16B43
:103E100002EB01414FF0FE4201F4FE0102EB0362AE
:103E2000084402F0FE4108443063F06A4FF6F8712E
:103E300020F00100F062706BA26C884340EAC2007F
:103E40007063F06A216C20F00C000843F062F06AA5
:103E5000616C20F002000843F062F06A40F48030A8
:103E6000F062F06A40F40030F062F06A40F48020C2
:103E7000F062F06A40F00100F062306840F080705B
:103E80003060FEF7CDFB0446306880013FF563AE3D
:103E9000FEF7C6FB001B02284FF00300F4D9F3E540
:103EA000F06A20F00100F062FEF7BAFB0546FEF76B
:103EB000B7FBA842FBD0706B4FF6F871A26C884339
:103EC00040EAC2007063F06A40F00100F062002036
:103ED00001B0F0BD00000000411E0020B0EB116FEA
:103EE00002D00120704700BF4EF21002F023CEF244
:103EF000000251604EF62351CEF200010B700721F3
:103F0000906011607047000090F83C20012A4FF04B
:103F1000020266D0B0B580F83D2040F2004C026845
:103F2000C4F2010C42F4806363455368D2F808E0A0
:103F300002BF23F470034C6823434DF6FF740D68F1
:103F4000C4F2000423F07003A24243EA0503536065
:103F500014DC40F2FF73C4F200039A4222DD40F603
:103F60000003C4F200039A422ED040F60043C4F28C
:103F700000039A4228D041F6000321E04FF6FF7378
:103F8000C4F200039A4213DD0023C4F201039A42F3
:103F90001AD044F20003C4F201039A4214D06245DD
:103FA00012D016E0B2F1804F0ED040F2004307E08D
:103FB0004EF20003C4F200039A4205D04EF20043D1
:103FC000C4F200039A4204D12EF080038968194399
:103FD00091600022012180F83D1080F83C20BDE86E
:103FE000B04010467047000060B310B5044690F82A
:103FF0003D0028B9002084F83C00204600F024F859
:10400000022084F83D002068211D01F0C9FD012037
:1040100084F8480084F83E0084F83F0084F84000AB
:1040200084F8410084F8420084F8430084F8440096
:1040300084F8450084F8460084F8470084F83D0081
:10404000002010BD0120704740F600010068C4F256
:104050000001884218BF704781B044F2E840C5F6BD
:104060000200016841F004010160006800F00400F2
:104070000090009801B0704790F83C20012A4FF062
:10408000020200F0AA8080B580F83D208822D0F896
:1040900000C0CFF6CE72DCF808301A40CCF8082009
:1040A0000B686F2B0EDDB3F1101F37DAB3F5005F2D
:1040B0006EDA702B00F0B680B3F5805F00F084807C
:1040C000D8E000BF2F2B33DD4F2B39DC302B6FD0E6
:1040D000402B40F0CF80D1F804E0C968DCF82030F4
:1040E000DCF8202022F00102CCF82020DCF8182097
:1040F00022F0F00242EA011123F00A02CCF8181073
:1041000042EA0E01CCF820104FF68872DCF8081055
:10411000CFF6CF721140473154E000BF2F21C0F2DB
:1041200010018B423ADCB3F1101F41D020213BE05B
:10413000002B18BF102B3BD0202B39D09AE000BFAA
:10414000502B4DD0602B40F09580D1F804E0C96829
:10415000DCF82030DCF8202022F01002CCF82020FF
:10416000DCF8182022F4704242EA013123F0A00268
:10417000CCF8181042EA0E11CCF820104FF68872D5
:10418000DCF80810CFF6CF72114067311AE000BF9B
:104190005CD0B3F5801F0BD06CE000BF3021C0F2C3
:1041A00010018B4204D04021C0F210018B4261D13A
:1041B0004FF68872DCF80810CFF6CF721140194321
:1041C00041F00701CCF808100022012180F83D10D1
:1041D000002180F83C10BDE880401046704700BFC9
:1041E000D1F804E0C968DCF82030DCF8202022F0A7
:1041F0000102CCF82020DCF8182022F0F00242EA7C
:10420000011123F00A02CCF8181042EA0E01CCF892
:1042100020104FF68872DCF80810CFF6CF721140EC
:104220005731CFE701F1040E9EE80C40DCF808108E
:104230001A4321F47F4142EA0E221143CCF80810C0
:10424000DCF8081041F07701BCE700BF01F1040E73
:104250009EE80C40DCF808101A4321F47F4142EA42
:104260000E221143CCF80810DCF8081041F480410C
:10427000A8E700BF0122A8E790F83C30012B01D14C
:10428000022070474FEAB202052A00F223812DE98D
:10429000F041DFE812F00700BB0057009500310045
:1042A000F90000BF036843F6FF76C4F201061C6AFA
:1042B000B3421A6A24F0020422F001021A621A467A
:1042C000D3F804C052F818EF8D6844EA0504D1F819
:1042D000008040F3818144F20007C4F20107BB4231
:1042E00000F0858144F60007C4F20107BB4200F0EC
:1042F0007E8144F2004776E1036843F6FF77C4F21B
:104300000107D3F820C0BB421A6A22F480321A6235
:104310001A465C6852F8546F0D68D1F808E040F313
:10432000DF8044F20007C4F20107BB4200F0E380E3
:1043300044F60007C4F20107BB4200F0DC8044F2FF
:104340000047D4E0036840F2004E43F48067C4F2B3
:10435000010E1C6A77451A6A24F4007422F48072F4
:104360001A621A465D6852F81CCF8E6844EA062429
:1043700007D1CE6840F2FF47360224F44064BE43C2
:10438000344343F6FF76D1F80080C4F20106B3420D
:1043900040F3D28044F20007C4F20107BB4200F0B0
:1043A000D28044F60007C4F20107BB4200F0CB8084
:1043B00044F20047C4F20107BB4200F0C480C9E0E8
:1043C000036843F6FF77C4F20107D3F820C0BB426D
:1043D0001A6A22F480521A621A465C6852F81C6FFC
:1043E0000D68D1F808E040F3CD8044F20007C4F234
:1043F0000107BB4200F0D18044F60007C4F2010778
:10440000BB4200F0CA8044F20047C2E0036840F2B9
:10441000004E43F48067C4F2010E1C6A77451A6AA5
:1044200024F0200422F010021A621A465D6852F845
:1044300018CF8E6844EA061407D1CE686FF04007A3
:1044400024F0C00407EA0616344343F6FF76D1F899
:104450000080C4F20106B34240F3E08044F200075A
:10446000C4F20107BB4200F0E08044F60007C4F24A
:104470000107BB4200F0D98044F20047C4F20107B3
:10448000BB4200F0D280D7E0036843F6FF77C4F266
:104490000107D3F820C0BB421A6A22F480121A62C4
:1044A0001A465C6852F8546F0D68D1F808E040F382
:1044B000058144F20007C4F20107BB4200F0098104
:1044C00044F60007C4F20107BB4200F0028144F247
:1044D0000047FAE00121002280F83C20084670479E
:1044E0000027C4F20107BB4205D040F20047C4F2E6
:1044F0000107BB4204D14F6924F4803444EA072405
:104500004FF68C775C60CFF6FE7703373E402CF495
:10451000003746EA05045C654E6809699E6547EA0E
:104520000E471F625F6D47F008075F655F6D27F0FC
:1045300004075F65EEE000BF0027C4F20107BB423D
:1045400001D0734506D1D1E90576374325F44056AD
:1045500046EA07154FF68C775D60CFF6FE7707EADF
:104560000C0747EA0807DF614F680969DF631C62CF
:10457000DF6947F00807DF61DF6927F00407DF61C3
:10458000C8E000BF0027C4F20107BB4205D040F2DB
:104590000047C4F20107BB4204D14F6924F48044B0
:1045A00044EA871448F6FF475C60CFF6FF673E4059
:1045B0002CF4005746EA0524DC614E6809691E6444
:1045C00047EA0E371F62DF6947F40067DF61DF6982
:1045D00027F48067DF619CE00027C4F20107BB423B
:1045E00005D040F20047C4F20107BB4205D1CF68B5
:1045F00024F00C0427F004073C43B34234DD44F2BA
:104600000006C4F20106B34239D044F60006C4F2F3
:104610000106B34233D044F200462CE00027C4F236
:104620000107BB4201D0734506D1D1E90576374376
:1046300025F4406646EA870548F6FF475D60CFF6F9
:10464000FF6707EA0C0747EA08279F614F68096977
:104650009F631C629F6947F400679F619F6927F40D
:1046600080679F6155E000BF0026C4F20106B34297
:1046700005D040F20046C4F20106B34206D12CF444
:104680004077D1E90565374347EA050C4FF68C754D
:10469000C3F804C0CFF6FE750EEA050747EA08071F
:1046A0009F614F6809695F631C629F6947F0080753
:1046B0009F619F6927F004079F612BE00027C4F2E8
:1046C0000107BB4205D040F20047C4F20107BB42DC
:1046D00004D14F6924F4802444EA872448F6FF4734
:1046E0005C60CFF6FF6707F540773E402CF400177B
:1046F00046EA05245C654E680969DE6547EA0E579F
:104700001F625F6D47F400675F655F6D27F4806728
:104710005F6509021368194311600021BDE8F0418B
:10472000002280F83C20084670470000000000008E
:1047300060B310B5044690F83D0028B9002084F815
:104740003C00204600F024F8022084F83D00206858
:10475000211D01F025FA012084F8480084F83E006C
:1047600084F83F0084F8400084F8410084F8420057
:1047700084F8430084F8440084F8450084F8460037
:1047800084F8470084F83D00002010BD01207047E8
:10479000704700000000000080B5C9B10B1F4FF04A
:1047A0003F0C4FEAB30E4322BEF1040F38BF0CEBAF
:1047B000B302825C012A13D1BEF1030F1ED8DFE8D9
:1047C0000EF00319111500BF022280F83F2018E0F7
:1047D00090F83E20012A03D1022280F83E2010E00A
:1047E000012080BD022280F841200AE0022280F8E8
:1047F000422006E0022280F8402002E0022280F8F7
:104800004320026801F01F00012101FA00F0116A43
:10481000814311624EF2FF31C4F200018A42116AF3
:1048200040EA0100106215DC40F6FF30C4F20000DF
:10483000824227DCB2F1804F4ED040F20040C4F2F9
:104840000000824248D040F60000C4F200008242DC
:1048500042D053E043F6FF700021C4F20100C4F2DD
:104860000101824244F20000C4F201001EDC4EF25B
:104870000043C4F200039A422ED08A4224D040F270
:1048800000431DE040F60040C4F20000824223D005
:1048900041F60000C4F2000082421DD04EF200003A
:1048A000C4F20000824217D028E000BF82420BD041
:1048B00044F60003C4F201039A4205D044F20043D7
:1048C000C4F201039A4219D1536C8A4243F4004165
:1048D000516418BF82420BD107219068C0F20101D8
:1048E00001400020062918BFB1F5803F06D180BDE8
:1048F00040F20040C4F201008242EDD0106840F066
:1049000001001060002080BD90F88410012901D1C1
:10491000022070472421C0F8881001680A680B68DB
:1049200022F0005223F001030B60002343660A606B
:104930002021C0F8881080F88430002070470000E3
:10494000D0F88C30202B07D110B504460120002967
:1049500018BF002A02D110BD02207047E066002077
:104960002067204602F09CF8002818BF10BDE06EBA
:1049700001282DD1206810210162206850E8000F25
:10498000216840F0100041E80002002A1FBF2068A3
:1049900050E8000F216840F010001CBF41E8000201
:1049A000002A17D0206850E8000F216840F010005E
:1049B00041E8000272B1206850E8000F216840F021
:1049C000100041E800020020002AD6D1C3E700BF52
:1049D000012010BD002010BD45F200020068C4F2A5
:1049E0000002904218BF7047192909D880B540F2DB
:1049F0007C00C2F2004001F03FFABDE880400BE0CD
:104A000040F27C000021C2F200400176C0E90011B2
:104A1000C0E90211C0E9041140F2AC2040F27C016F
:104A2000C2F20040C2F200413222FFF789BF00000B
:104A3000704700000000000090F88420012A01D196
:104A40000220704770B52422C0F888200268D0F890
:104A500064E0BEF1000FD2F800C0136823F0010338
:104A60001360936823F0606341EA0301916019D0F9
:104A7000916847F22A7E9368C0F6000E5B0F47F2FA
:104A80003275C1F34266C0F600051EF80340E95CCA
:104A90002301B3FBF1F11EF80630AE5D1B01B3FB41
:104AA000F6F301E001210123A0F86A102021A0F80B
:104AB0006830C2F800C0C0F88810002180F8841067
:104AC000002070BD0000000090F88420012A01D170
:104AD0000220704770B52422C0F888200268D0F800
:104AE00064E0BEF1000FD2F800C0136823F00103A8
:104AF0001360936823F0604341EA0301916019D089
:104B0000916847F22A7E9368C0F6000E5B0F47F269
:104B10003275C1F34266C0F600051EF80340E95C39
:104B20002301B3FBF1F11EF80630AE5D1B01B3FBB0
:104B3000F6F301E001210123A0F86A102021A0F87A
:104B40006830C2F800C0C0F88810002180F88410D6
:104B5000002070BD00000000704700000000000051
:104B6000704700000000000045F200010068C4F238
:104B70000001884218BF704740F27C0140F2AC202F
:104B8000C2F20041C2F20040322200230B76C1E99A
:104B90000033C1E902330B614B61FFF7D1BE000066
:104BA00070B5016840F62F02CB691A40202A0A68C6
:104BB0008E680BD102F0200406F080552D1917D015
:104BC000416F69B3BDE87040084700BF40F60F056C
:104BD0002B420DD0012540F22014C1F20005C0F295
:104BE000004406EA050C02EA040515EB0C0525D184
:104BF000DD06C46E16D5012C14D112F0100511D0AB
:104C000010220A628968490666D4B0F85C10B0F8D0
:104C10005E20B0F85E30002B18BF914240F05C82FD
:104C200070BD00BFDD0215D516F4800512D04FF41B
:104C300080120A62BDE87040FFF792BFDD0718BF1F
:104C400012F4807540F01E819D0706F0010E00F100
:104C500025812EE1190606D502F0800106F4000632
:104C6000891940F0BF82590640F1008112F04001DD
:104C700000F0FC80016851E8001F026821F040014B
:104C800042E80013F3B1016851E8001F026821F007
:104C9000400142E80013002B1FBF016851E8001FCC
:104CA000026821F040011CBF42E80013002B09D02C
:104CB000016851E8001F026821F0400142E800133A
:104CC000002BD7D12021C0F8881000218167BDE8D2
:104CD000704000F0B9BB00BFD0F880100A6852687D
:104CE00093B2002B9CD0B0F85C60B34298D2A0F88D
:104CF0005E20C969B1F5807F00F0AC80016851E8A1
:104D0000001F026821F4807142E80013F3B10168CA
:104D100051E8001F026821F4807142E80013002B63
:104D20001FBF016851E8001F026821F480711CBF99
:104D300042E80013002B09D0016851E8001F026807
:104D400021F4807142E80013002BD7D1016851E8AB
:104D5000021F026821F0010142E80213F3B1016869
:104D600051E8021F026821F0010142E80213002B02
:104D70001FBF016851E8021F026821F001011CBF3A
:104D800042E80213002B09D0016851E8021F0268B3
:104D900021F0010142E80213002BD7D1016851E84C
:104DA000021F026821F0400142E80213F3B10168DA
:104DB00051E8021F026821F0400142E80213002B73
:104DC0001FBF016851E8021F026821F040011CBFAB
:104DD00042E80213002B09D0016851E8021F026863
:104DE00021F0400142E80213002BD7D12021C0F866
:104DF0008C100021C166016851E8001F026821F093
:104E0000100142E80013F3B1016851E8001F026885
:104E100021F0100142E80013002B1FBF016851E888
:104E2000001F026821F010011CBF42E80013002B94
:104E300009D0016851E8001F026821F0100142E822
:104E40000013002BD7D1D0F8801004460846FBF79A
:104E5000E7FD204602210167B0F85C10B0F85E2043
:104E6000891A89B2BDE87040FFF7B6BD190240F15A
:104E7000C58112F0804100F0C181BDE87040FFF7AC
:104E80006BBE00BF01250D62D0F8905045F00105C2
:104E9000C0F890509D0706F0010E0AD5BEF1000F34
:104EA00007D002240C62D0F8904044F00404C0F80B
:104EB00090405C070AD5BEF1000F07D004250D62B3
:104EC000D0F8905045F00205C0F890501D070CD561
:104ED00002F0200555EA0C0507D008250D62D0F830
:104EE000905045F00805C0F890501D050BD512F004
:104EF000806508D04FF400650D62D0F8905045F001
:104F00002005C0F89050D0F89050002D3FF488AEA6
:104F10009B060BD502F0200206F08053D21805D074
:104F2000426F1AB10446904720462168D0F890207D
:104F3000896801F0400102F02802891806D1044670
:104F4000FFF712FE0020C4F8900070BD016851E820
:104F5000001F026821F4907142E80013F3B1016868
:104F600051E8001F026821F4907142E80013002B01
:104F70001FBF016851E8001F026821F490711CBF37
:104F800042E80013002B09D0016851E8001F0268B5
:104F900021F4907142E80013002BD7D14FF6FE7137
:104FA000CEF6FF71026852E8022F03680A4043E818
:104FB0000226DEB1026852E8022F03680A4043E885
:104FC0000226002E1FBF026852E8022F03680A4023
:104FD0001CBF43E80226002E08D0026852E8022FC8
:104FE00003680A4043E80226002EDBD1C16E012986
:104FF00027D1016851E8001F026821F0100142E842
:105000000013F3B1016851E8001F026821F010019C
:1050100042E80013002B1FBF016851E8001F02681F
:1050200021F010011CBF42E80013002B09D00168D9
:1050300051E8001F026821F0100142E80013002B24
:10504000D7D12021C0F88C100021C16602684167C9
:105050009168490640F1CE80016851E8021F02685C
:1050600021F0400142E80213F3B1016851E8021F48
:10507000026821F0400142E80213002B1FBF0168C3
:1050800051E8021F026821F040011CBF42E80213F0
:10509000002B09D0016851E8021F026821F040018D
:1050A00042E80213002BD7D1D0F88010002900F07D
:1050B000A18046F2612204460846C0F600020A6555
:1050C000FBF742FF00283FF4ABADD4F88000016D40
:1050D000BDE87040084700BF891A026852E8002FF7
:1050E000036822F4907243E80026F6B1026852E8A1
:1050F000002F036822F4907243E80026002E1FBFA1
:10510000026852E8002F036822F490721CBF43E843
:105110000026002E09D0026852E8002F036822F40E
:10512000907243E80026002ED7D14FF6FE72CEF6DD
:10513000FF72036853E8023F0668134046E80235F1
:10514000DDB1036853E8023F0668134046E80235C4
:10515000002D1FBF036853E8023F066813401CBFC1
:1051600046E80235002D08D0036853E8023F066880
:10517000134046E80235002DDBD12022C0F88C20F8
:105180000022C2664267026852E8002F036822F0DC
:10519000100243E80026F6B1026852E8002F0368C7
:1051A00022F0100243E80026002E1FBF026852E8DA
:1051B000002F036822F010021CBF43E80026002ED7
:1051C00009D0026852E8002F036822F0100243E879
:1051D0000026002ED7D189B202220267BDE87040B6
:1051E000FFF7FABB816F00293FF41AADBDE87040AC
:1051F000084700BFBDE87040FFF7B6BCD9017FF596
:105200000FADB2F1FF3FC8BF70BDBDE87040FFF702
:105210000FBC00000000000010B5D8B10446D0F863
:10522000880028B9002084F88400204600F028F87F
:105230002420C4F888002068A16A0268002922F0AE
:105240000101016002D0204600F082FD204601F0FD
:10525000D7F908B1012010BD2068416821F49041C0
:105260004160816821F02A018160016841F00101FB
:1052700001602046BDE8104000F03ABF0000000089
:105280002DE9F041B6B0044602A8B8210025CDE9C9
:105290003455CDE932553195FBF716F941F200014D
:1052A0002068C4F20101884278D045F20001C4F2BE
:1052B000000188426FD102A8002603964FF0020831
:1052C000CDF80880FDF7F0FB08B1FBF7A1FB44F235
:1052D000E0400027C5F60200C5F6020731AD81683F
:1052E00041F480118160816801F48011019101997C
:1052F000016841F002010160016801F002010191C1
:105300000199016841F0080101600068294600F038
:105310000800019001984FF40050CDE931080E20AB
:10532000359007F58060CDE93366FDF79DF80420E0
:105330002946CDE931080820359007F54060CDE9D0
:105340003366FDF791F840F2DC051020C2F200450B
:10535000C4F20200183028604120C5E901064FF46C
:105360008060EE60C5E904062846C5E90666C5E921
:105370000866FCF751FB4FF0350608B1FBF748FB18
:10538000002100223046C4F88050AC63FDF7E0F9FC
:105390003046FDF7C9F936B0BDE8F0810120029032
:1053A00002A80395FDF780FB08B1FBF731FB44F23F
:1053B000E0400026C5F60200016941F010010161DC
:1053C000016901F0100101910199016841F00101A9
:1053D0000160006831A900F00100019001984FF4CC
:1053E000C060319002203290072035900020C5F631
:1053F0000200CDE93366FDF737F840F2541510206E
:10540000C2F20045C4F2020028602920C5E9010665
:105410004FF48060EE60C5E904062846C5E90666DB
:10542000C5E90866FCF7F8FA00284FF02506A5D173
:10543000A6E7000000000000704700000000000028
:1054400070470000000000007047000000000000EE
:10545000FEE700000000000080B582B044F2D840B2
:105460000022C5F60200016841F0010101600068F8
:10547000002100F00100019001980B20FDF768F970
:105480000B20FDF751F90C2000210022FDF760F9F7
:105490000C2002B0BDE88040FDF746B900000000D6
:1054A0002DE9F04387B000200690CDE90400CDE956
:1054B000020044F2E04040F60009C5F60200C5F6DD
:1054C000020900224FF4C056016841F080010160DA
:1054D000016801F0800101910199016841F0020128
:1054E0000160016801F0020101910199016841F038
:1054F00008010160016801F008010191019901684A
:1055000041F001010160016801F00101019101997F
:10551000016841F004010160016801F0040101919A
:105520000199016841F01001016000684FF4C05119
:1055300000F01000019001984846FDF769F809F560
:1055400000650321002228464FF00308FDF760F8AC
:10555000029602AE48463146012703970224CDE960
:105560000447FCF781FF28463146CDE90287CDE9A3
:105570000447FCF779FF07B0BDE8F08300000000A6
:10558000B0B594B040F2CC1040F60005C2F2004035
:1055900000210D91C4F20005CDE90B11CDE90811F0
:1055A000CDE90611CDE90411CDE90211CDE90011D3
:1055B00005600422C0E9012140F6DD12C0E90321A3
:1055C00080218161FEF710FD08B1FBF721FA4FF44D
:1055D00080500A9040F2CC100AA9C2F20040FEF7B7
:1055E0004BFD08B1FBF714FA40F2CC10C2F20040B8
:1055F000FFF79EF808B1FBF70BFA40F2CC1007A9B1
:10560000C2F20040002407940994FEF77DFC08B123
:10561000FBF7FEF960206946CDE9000440F2CC10AA
:105620000822C2F2004002940494FEF725FE08B15D
:10563000FBF7EEF940F2CC146946C2F200440C22AA
:105640002046FEF719FE08B1FBF7E2F921680020B9
:10565000A9421390CDE9110010900F9002D014B020
:10566000B0BD00BF44F2E041C5F602010A6842F055
:1056700008020A60096801F008010E910E994FF4C2
:1056800040410F910221CDE9120140F60040CDE9E1
:105690001011C5F602000FA9FCF7E6FE14B0B0BD6C
:1056A00080B540F2AC2045F20001C2F2004048F261
:1056B000A062C4F20001C0F20102C0E900124FF47E
:1056C000805181604FF40051C1604FF480610161ED
:1056D0000C21416100218162C0E90611C0E9081175
:1056E000FFF79AFD08B1FBF793F940F2AC200021D7
:1056F000C2F20040FFF7E8F908B1FBF789F940F280
:10570000AC200021C2F20040FFF796F908B1FBF788
:105710007FF940F2AC20C2F20040FFF7F5F8002814
:1057200008BF80BDBDE88040FBF772B900000000F3
:1057300080B540F2182041F20001C2F20040C4F2EC
:1057400001010C2201604FF4E13141600021C0E908
:1057500002110161C0E90521C0E90711C0E9091181
:10576000FFF75AFD08B1FBF753F940F2182000216A
:10577000C2F20040FFF7A8F908B1FBF749F940F27F
:1057800018200021C2F20040FFF756F908B1FBF7DC
:105790003FF940F21820C2F20040FFF7B5F80028A8
:1057A00008BF80BDBDE88040FBF732B900000000B3
:1057B000FEE7000000000000FEE70000000000001F
:1057C0007047000000000000F0B581B044F22C47A3
:1057D000C5F6020757F8042C02F00302032A03D18E
:1057E000012001B0F0BD00BF054657F82C0C0C4657
:1057F00020F0806047F82C0CFCF712FF064600BF33
:1058000057F82C0C000105D5FCF70AFF801B022875
:10581000F6D964E057F8040CEE6895E80E0020F421
:105820007C30012C40EA0130A2F101016FF35F21CD
:105830004FF47E4202EB432247F8040C92B24FF041
:10584000FE4302EB01004FF4FE012A6901EB064121
:1058500001F4FE0103EB0262084402F0FE41084439
:10586000F8603868696920F0C00040EA01003860DB
:105870003868A96920F0200040EA010038603868E3
:105880004FF6F87120F0100038603869EA6920EAB4
:1058900001004FF4001140EAC2003861386808BFC7
:1058A0004FF4801140F01000002C386008BF4FF416
:1058B000002138680843386057F82C0C40F08060AD
:1058C00047F82C0CFCF7ACFE044600BF57F82C0C34
:1058D000000107D4FCF7A4FE001B0328F6D3032025
:1058E00001B0F0BD002001B0F0BD000000000000DC
:1058F000F0B581B044F22C47C5F6020757F8042CE6
:1059000002F00302032A03D1012001B0F0BD00BF61
:10591000054657F82C0C0C4620F0805047F82C0C0C
:10592000FCF77EFE064600BF57F82C0C800005D51C
:10593000FCF776FE801B0228F6D964E057F8040CC9
:10594000EE6895E80E0020F07C70012C40EA0150D2
:10595000A2F101016FF35F214FF47E4202EB43227B
:1059600047F8040C92B24FF0FE4302EB01004FF4F3
:10597000FE012A6901EB064101F4FE0103EB02621C
:10598000084402F0FE41084478613868696920F4EF
:10599000406040EA010038603868A96920F400706E
:1059A00040EA0100386038684FF6F87120F48070E2
:1059B0003860B869EA6920EA01004FF0807140EA76
:1059C000C200B861386808BF4FF4000140F480702D
:1059D000002C386008BF4FF48001386808433860F5
:1059E00057F82C0C40F0805047F82C0CFCF718FEB0
:1059F000044600BF57F82C0C800007D4FCF710FEBB
:105A0000001B0328F6D3032001B0F0BD002001B035
:105A1000F0BD000000000000704700000000000022
:105A2000FCF706BE00000000B0B59CB044F61804B8
:105A300009A84C21C5F60204FAF746FD022000250C
:105A4000CDE90755CDE90555CDE90355CDE901551A
:105A5000FCF7BEFE0095206820F4404020602068DE
:105A600000F44040009000982068800409D4206829
:105A700080045CBF20685FEA804002D42068800414
:105A8000F2D50220099012900025CDE917000C20D4
:105A90000121CDE9190509A80C9140240D94139515
:105AA000042214921E22CDE915211B95FDF77CFFDF
:105AB00020B1EFF3108072B6FEE700BF3F200190E7
:105AC00003200321CDE9020508200694CDE9040452
:105AD0004FF48060CDE9070401A8FDF725FD28B14A
